:020000040800F2
:1000000000000120C5020008CB020008CF02000852
:1000100041030008450300088D03000800000000AC
:10002000000000000000000000000000D5030008F0
:10003000D903000800000000DD030008E103000808
:10004000F1030008F1030008F1030008F1030008C0
:10005000F1030008F10300087D0B0008990B00086C
:10006000F1030008F1030008F1030008F1030008A0
:10007000F1030008F1030008F1030008F103000890
:10008000F1030008F1030008F1030008000000007C
:10009000000000000000000000000000F103000864
:1000A000F1030008F1030008F1030008F103000860
:1000B000F1030008F1030008F1030008F103000850
:1000C000F1030008F1030008F103000851120008D1
:1000D000F103000879110008411200080000000037
:1000E000F1030008F1030008F1030008000000001C
:1000F000000000000000000000000000F103000804
:1001000000000000F1030008F1030008F1030008FB
:1001100000000000000000000000000000000000DF
:10012000F1030008F1030008F1030008F1030008DF
:10013000F1030008000000000000000000000000C3
:10014000000000000000000000000000F1030008B3
:10015000F1030008F1030008F1030008F1030008AF
:10016000F1030008F1030008000000000000000097
:10017000000000000000000000000000000000007F
:1001800000000000F1030008000000000000000073
:10019000F103000800B583B000F0BAF9384B394AD2
:1001A0001360394A1360394900E02146384B9942BF
:1001B0000BD20A684B6801F10C0488689842F4D9A4
:1001C0001168196004330432F8E72E4B1A68314B7A
:1001D0009A4200D0FEE72C4B1A682F4B9A42F9D175
:1001E000274B2E4A13602E4A13602E4B05E0002049
:1001F000106004329342FAD80B462B4A934204D241
:10020000194651F8082B5B68F4E7244B1B6813B9B7
:10021000234B1B6803B1FEE700F086F9694601A88D
:1002200000F022F9214C224BE41AA4100025AC4224
:1002300014DC204C204BE41AA4100025AC4213DC43
:100240000099019801F006FB05461C4C1C4BE41A72
:10025000A410002C0EDC284600F0E2F8144B53F8F2
:10026000253098470135E2E7134B53F8253098477E
:100270000135E3E7013C124B53F824309847E8E797
:10028000BABADECA0000002078000020F40300089B
:100290000C04000878563412325476987C00002002
:1002A000400100200C0400081C0400081C04000885
:1002B0001C0400081C0400081C0400081C0400089E
:1002C0001C04000808B5FFF765FF00BEFEE71EF03E
:1002D000040F0CBFEFF30880EFF309807146414A29
:1002E00010472DE9F04182B004468846124B5E6B00
:1002F0009F6B9D6A1B6B13F0020F03D00E4BDB6AE2
:10030000002B0CDB0D4800F0B7F8CDF800803B4621
:1003100032462946204600F00BF900BEFEE74BF6B8
:10032000AB6100F07FF90028ECD0034B4FF00042A6
:10033000DA6202B0BDE8F08100ED00E0242B000895
:1003400000BEFEE71EF0040F0CBFEFF30880EFF3D2
:1003500009807146244A10472DE9F04182B00446D5
:100360008846084B5E6B9F6B9D6A074800F084F8D7
:10037000CDF800803B4632462946204600F0D8F8AA
:1003800000BEFEE700ED00E0342B00081EF0040F75
:100390000CBFEFF30880EFF309807146134A104752
:1003A0002DE9F04182B004468846084B5E6B9F6B96
:1003B0009D6A074800F060F8CDF800803B46324661
:1003C0002946204600F0B4F800BEFEE700ED00E04C
:1003D000402B000800BEFEE700BEFEE700BEFEE7C1
:1003E00070470000E302000859030008A103000859
:0403F00000BEFEE766
:1003F4006C2C0008000000207C0000206C2C0008FD
:1004040000000010000000107C00002044010020C7
:080414000000001000000010C0
:10042000FEE7000008B503460C4A12685AB10B4AB1
:100430001068033323F003030344094A934206D8A8
:10044000064A136008BD054A06491160EFE701F04E
:1004500063FE0C2303604FF0FF30F3E780000020C1
:1004600000FC00204401002001230360014B0B60CD
:10047000704700BF040000200FB400B583B004AB88
:1004800053F8042B01938021064801F077FE0028E1
:1004900003DD0146034800F037F803B05DF804EBD4
:1004A00004B07047880000202DE9F04385B0044671
:1004B0000F4643560BB10E461EE004252846214642
:1004C000ABBE0446384605B0BDE8F08314F9011B05
:1004D00004AA1A4402F8101C0133AB42F6D304AA52
:1004E0001344002203F8102C4FF00408E94640465C
:1004F0004946ABBE8046761B002EE3D03546102E13
:1005000028BF10250023E8E708B5FFF7CDFF08BD99
:1005100008B500F097F8024A024B9A6008BD00BF88
:100520000000000800ED00E008B500F0ABF808BDE1
:10053000F8B504460D4617461E462748FFF79CFFB0
:1005400021682648FFF798FF61682548FFF794FF68
:10055000A1682448FFF790FFE1682348FFF78CFF6C
:1005600021692248FFF788FF61692148FFF784FF6E
:10057000A1692048FFF780FFE1691F48FFF77CFF72
:100580001E48FFF779FF29461D48FFF775FF1D4CF0
:10059000E16A1D48FFF770FF216B1C48FFF76CFFF5
:1005A000E16B1B48FFF768FF15F0800F0AD115F4C7
:1005B000004F0CD11748FFF75FFF06991648FFF769
:1005C0005BFFF8BD39461548FFF756FFEFE73146A8
:1005D0001348FFF751FFEDE7082A0008182A000822
:1005E000282A0008382A0008482A0008582A000843
:1005F000682A0008782A0008882A0008982A000833
:10060000A42A000800ED00E0B42A0008C42A00086B
:10061000D42A0008042B00080C2B0008E42A000848
:10062000F42A000883691A888A4201D000207047A2
:100630000268033A012A03D802338361012070471C
:10064000002070470C4B1A6842F001021A6000212A
:1006500099601A6822F0847222F480321A60074A84
:100660005A601A6822F480221A60D960044B4FF055
:1006700000629A60704700BF0038024010300024CA
:1006800000ED00E0224B9B6803F00C03042B14D018
:10069000082B16D01BB11F4B1F4A1A6002E01D4BDE
:1006A0001D4A1A601A4B9B68C3F303131B4AD15CA3
:1006B000184A1368CB4013607047164B184A1A60EB
:1006C000F0E7134B5A685B6803F03F0312F4800FA6
:1006D00013D0134AB2FBF3F20D4B5B68C3F38813DC
:1006E00003FB02F30A4A5268C2F30142013252008C
:1006F000B3FBF2F3074A1360D4E7074AB2FBF3F205
:10070000034B5B68C3F3881303FB02F3EAE700BF04
:10071000003802400C0000200024F400502B000898
:1007200040787D0108B501220C21104600F088FABE
:1007300001220D21104600F083FA01220E211046FD
:1007400000F07EFA01220F21104600F079FA012212
:100750000C21104600F086FB01220D21104600F00E
:1007600081FB01220E21104600F07CFB01220F21AB
:10077000104600F077FB00220121084600F060FAE5
:1007800000220221012000F05BFA00220321012057
:1007900000F056FA01221146104600F02BFB012210
:1007A0000221104600F026FB01220321104600F032
:1007B00021FB08BD2DE9F0414FF0540800261EE052
:1007C0002546022D14D86C1CE4B22146012000F00D
:1007D000ADFB0028F4D106EB4602104B134413F88E
:1007E00005802146012000F0A1FB0028F9D0E7E7B1
:1007F00001223946104600F035FB0136F6B2032ED1
:1008000009D806F10C07FFB200223946012000F09A
:1008100029FB0025D5E74046BDE8F081602B0008A4
:1008200010B5044601220821104600F009FA012201
:100830000821104600F016FB01220721104600F0A7
:10084000FFF9E2090721012000F00CFB012206213B
:10085000104600F0F5F9C4F380120621012000F0E3
:1008600001FB01220521104600F0EAF9C4F3401211
:100870000521012000F0F6FA01220421104600F0C3
:10088000DFF9C4F300120421012000F0EBFA012289
:100890000921104600F0D4F901220921104600F088
:1008A000E1FA012000F00AFD01220921104600F0C2
:1008B000C7F900220921012000F0D4FA012000F03C
:1008C000FDFC01220721104600F0BAF9C4F3C00272
:1008D0000721012000F0C6FA01220621104600F08F
:1008E000AFF9C4F380020621012000F0BBFA012217
:1008F0000521104600F0A4F9C4F3400205210120AF
:1009000000F0B0FA01220421104600F099F904F039
:1009100001020421012000F0A5FA0122092110465C
:1009200000F08EF901220921104600F09BFA012007
:1009300000F0C4FC01220921104600F081F90022D8
:100940000921012000F08EFA012000F0B7FC10BD53
:1009500010B5044601220821104600F071F900226A
:100960000821012000F07EFA01220721104600F044
:1009700067F9E2090721012000F074FA012206213B
:10098000104600F05DF9C4F380120621012000F04A
:1009900069FA01220521104600F052F9C4F3401211
:1009A0000521012000F05EFA01220421104600F02A
:1009B00047F9C4F300120421012000F053FA012288
:1009C0000921104600F03CF901220921104600F0EF
:1009D00049FA012000F072FC01220921104600F0C2
:1009E0002FF900220921012000F03CFA012000F03B
:1009F00065FC01220721104600F022F9C4F3C00271
:100A00000721012000F02EFA01220621104600F0F5
:100A100017F9C4F380020621012000F023FA012215
:100A20000521104600F00CF9C4F340020521012015
:100A300000F018FA01220421104600F001F904F038
:100A400001020421012000F00DFA012209211046C3
:100A500000F0F6F801220921104600F003FA012007
:100A600000F02CFC01220921104600F0E9F80022D8
:100A70000921012000F0F6F9012000F01FFC10BD53
:100A800008B5FFF7CDFE08BD38B50546002403E0E4
:100A9000FFF7F6FF0134E4B2285D0028F8D138BD35
:100AA00008B510B1012805D008BD41F08000FFF75E
:100AB0004FFFF9E74039C8B2FFF74AFFF4E708B53E
:100AC0000120FFF745FF012000F0F8FB08BD000002
:100AD00010B584B020B10446002805DB00221BE0DD
:100AE0003020FFF7CDFF24E044422D20FFF7C8FF60
:100AF000F4E7114981FB0431E317C3EBA103184666
:100B000003EB83035900631A303304A9114401F83D
:100B10000C3C0132D2B20446002CEAD107E0541E4C
:100B200004AB234413F80C0CFFF7AAFFE2B2002A2F
:100B3000F5D104B010BD00BF6766666608B5322007
:100B400000F0BCFB0220FFF703FF2820FFF700FFA7
:100B50000C20FFF7FDFE012000F0B0FB0620FFF7A0
:100B6000F7FE08BD014B1860704700BF0801002068
:100B7000014B1860704700BF0C01002008B5044B02
:100B80001B689847034A536943F00103536108BD4A
:100B900008010020003C014008B5044B1B68984741
:100BA000034A536943F00203536108BD0C0100205E
:100BB000003C0140012915D049B102291DD014493A
:100BC0000B68012202FA00F0184308607047104BCE
:100BD00099680122824011439960D96821EA020292
:100BE000DA60ECE70A4BD968012282401143D960F0
:100BF000996821EA02029A60E1E7054A91680123B7
:100C0000834019439160D1680B43D360D7E700BF9D
:100C1000003C014030B4850800F003000F2303FAC4
:100C200000F2064C54F8253023EA0203814063EABF
:100C3000010344F8253030BC704700BF0038014044
:100C400010B4012812D018B102281DD010BC704772
:100C5000144B1868490003248C4020EA04001860F3
:100C6000186802FA01F101431960EFE70E4B1868AA
:100C7000490003248C4020EA04001860186802FA36
:100C800001F101431960E1E7084B186849000324AA
:100C90008C4020EA04001860186802FA01F1014350
:100CA0001960D3E70000024000040240000802403F
:100CB00007291DD801280BD010B1022810D0704789
:100CC0001E48036A890002FA01F119430162704764
:100CD0001B48036A890002FA01F119430162704757
:100CE0001848036A890002FA01F11943016270474A
:100CF00010B401280ED018B1022815D010BC7047CE
:100D00000E4C606A01F007039B0002FA03F10143F5
:100D10006162F3E70A4C606A01F007039B0002FA84
:100D200003F101436162E9E70648436A01F0070104
:100D3000890002FA01F119434162DFE70000024035
:100D4000000402400008024030B401281CD018B151
:100D5000022831D030BC70472348446801258D40BB
:100D600024EA0504446044688A4022434260826861
:100D70004C000321A14022EA01028260826803FA4A
:100D800004F111438160E5E71848446801258D406E
:100D900024EA0504446044688A402243426084682F
:100DA0004A000321914024EA01018160846803FA2A
:100DB00002F121438160CDE70D48446801258D4053
:100DC00024EA0504446044688A4022434260826801
:100DD000490003248C4022EA04028260826803FAFC
:100DE00001F111438160B5E70000024000040240B8
:100DF0000008024010B4012812D018B102281DD0FA
:100E000010BC7047144BD868490003248C4020EA7A
:100E10000400D860D86802FA01F10143D960EFE715
:100E20000E4BD868490003248C4020EA0400D860A7
:100E3000D86802FA01F10143D960E1E7084BD868AC
:100E4000490003248C4020EA0400D860D86802FAE4
:100E500001F10143D960D3E70000024000040240E1
:100E60000008024010B4012810D018B1022819D08F
:100E700010BC7047114B586901248C4020EA0400D3
:100E8000586158698A4002435A61F1E70C4B58692E
:100E900001248C4020EA0400586158698A400243CA
:100EA0005A61E5E7074B586901248C4020EA0400A9
:100EB000586158698A4002435A61D9E700000240EC
:100EC000000402400008024001280FD010B102289F
:100ED00019D07047124B5869012202FA01F120EA39
:100EE000010058615A695140596170470D48426983
:100EF000012303FA01F122EA01024261084A53691F
:100F000059405161704708484269012303FA01F1D1
:100F100022EA01024261024A536959405161704715
:100F200000000240000402400008024001280AD0EC
:100F300018B102280DD000207047094B1869C8402D
:100F400000F001007047074B1869C84000F001002D
:100F50007047054B1869C84000F00100704700BF9A
:100F6000000002400004024000080240420900F074
:100F70001F00012303FA00F0014B43F822007047E1
:100F800000E100E0430900F01F00012202FA00F036
:100F90002033024A42F82300704700BF00E100E01E
:100FA000430900F01F008033034A52F8233023FA2C
:100FB00000F000F00100704700E100E01E4B1B78DC
:100FC000033B042B36D8DFE803F0030C17222D0077
:100FD0000A01D2B200F1604000F5614080F80023C0
:100FE0007047120142EA4112D2B200F1604000F5AE
:100FF000614080F800237047120142EA8112D2B2A8
:1010000000F1604000F5614080F800237047120154
:1010100042EAC112D2B200F1604000F5614080F8AE
:10102000002370471201D2B200F1604000F5614028
:1010300080F80023704700BF30010020054B187076
:10104000054B064A1A60000240F0BF6040F40030D1
:10105000186070473001002000ED00E00000FA0544
:10106000114A136843F0010313600F4B1B6813F020
:10107000020FFAD00C4B9A6822F001029A609A682B
:1010800022F002029A609A6822F010029A609A682E
:1010900022F020029A609A6822F040029A609A68D0
:1010A00022F080029A60704700380240032822D85C
:1010B000DFE800F0020A121A0F48036B012202FA5D
:1010C00001F11943016370470B48436B012202FA97
:1010D00001F11943416370470748036C012202FA8A
:1010E00001F11943016470470348436C012202FA7D
:1010F00001F119434164704700380240134BDA682C
:1011000022F40042DA60DA6822F48052DA60DA68A7
:1011100022F48062DA601A6922F480521A611A6934
:1011200022F400521A6140F283629A60DA6842F057
:101130000802DA60DA6842F00402DA60DA6842F043
:101140002002DA6000221A60704700BF00100140E0
:10115000054AD36843F40053D360A2F54C42D368E8
:1011600043F40053D36070470010014008B1014AB6
:10117000106070471401002008B5024B1B6803B1D2
:10118000984708BD1401002010B50446142000F053
:1011900095F8044B5C60034B1B6813F0800FFAD08A
:1011A00010BD00BF00100140044B1B6813F0200F5E
:1011B000FAD0024B5868C0B2704700BF001001401F
:1011C000154BDA6822F40042DA60DA6822F48052C1
:1011D000DA60DA6822F48062DA60DA6822F4007297
:1011E000DA601A6922F480521A611A6922F40052F4
:1011F0001A6140F283629A60DA6842F00802DA60AB
:10120000DA6842F00402DA60DA6842F02002DA605A
:1012100000221A60704700BF00440040044B1B6866
:1012200013F0200FFAD0024B5868C0B2704700BFCD
:101230000044004008B1014A1060704710010020CE
:1012400008B5024B1B6803B1984708BD1001002088
:1012500008B5024B1B68984708BD00BF1801002065
:10126000024A136823F004031360704710E000E0A3
:10127000012806D020B9064A136823F00203136040
:101280007047034A136843F002031360704700BFBE
:1012900010E000E0044B00229A6058601A6842F0A7
:1012A00001021A60704700BF10E000E0024B1868AE
:1012B000C0F30040704700BF10E000E010B50446E6
:1012C0000020FFF7D5FF4FF4FA6000FB04F0FFF7B2
:1012D000E1FFFFF7EBFF0028FBD010BD08B50021B0
:1012E0000846FFF7DDFB1048FFF7CEFB0021012089
:1012F000FFF7D6FB0D48FFF7C7FB0B210120FFF7D7
:10130000CFFBFFF757FA5428E9D0094B1870FFF7C5
:10131000B7FB4FF4FA60FFF7D1FFFFF7D0FB4FF4B4
:101320007A70FFF7CBFF08BD802B0008902B0008D8
:101330001C01002008B501E0834228D000210846A6
:10134000FFF7AEFB1A48FFF79FFB00210120FFF7D4
:10135000A7FB1848FFF798FB0B210120FFF7A0FB24
:10136000FFF728FA144B1B788342E5D05428E3D0CA
:10137000124B1870FFF784FB4FF4FA60FFF79EFFE3
:10138000FFF79DFB4FF47A70FFF798FF08BDFFF75A
:1013900096FBC820FFF792FF05210020FFF780FB96
:1013A0000748FFF771FB4FF47A70FFF787FFC5E737
:1013B0009C2B0008902B00081C0100201D01002020
:1013C000B02B000808B507E0834200F09880544B2A
:1013D0001B78834200F0938000210846FFF760FBF2
:1013E0005048FFF751FB00210120FFF759FB4E4801
:1013F000FFF74AFB0B210120FFF752FBFFF7DAF959
:101400004A4B1B788342DFD0454A12788242DBD0B8
:101410005428D9D0464B1870FFF732FB4FF4FA60CE
:10142000FFF74CFFFFF74BFB4FF47A70FFF746FFD7
:101430004048FFF729FB4FF4FA70FFF73FFF082100
:101440000020FFF72DFB2E20FFF71AFB4FF4FA7058
:10145000FFF734FF09210020FFF722FB2E20FFF7C2
:101460000FFB4FF4FA70FFF729FF0A210020FFF766
:1014700017FB2E20FFF704FB4FF4FA60FFF71EFF67
:1014800000210120FFF70CFB2B48FFF7FDFA4FF47A
:10149000FA60FFF713FFFFF712FBC820FFF70EFFFC
:1014A00005210020FFF7FCFA2448FFF7EDFA4FF47E
:1014B000FA60FFF703FFFFF702FBC820FFF7FEFE0D
:1014C00000210846FFF7ECFA1D48FFF7DDFA082176
:1014D0000020FFF7E5FA1B4B1878FFF7F9FA002117
:1014E0000120FFF7DDFA1848FFF7CEFA08210120A6
:1014F000FFF7D6FA154B1878FFF7EAFA08BDFFF7A1
:10150000DEFAC820FFF7DAFE05210020FFF7C8FA4F
:101510000F48FFF7B9FA4FF47A70FFF7CFFE5BE799
:101520001D010020BC2B0008902B00081C0100208E
:101530001E010020CC2B0008D42B0008E02B000853
:10154000E82B000838010020F02B000810000020D4
:10155000B02B000808B505210020FFF7A1FA0D48BF
:10156000FFF792FA00210120FFF79AFA0A48FFF7E5
:101570008BFA4CF25030FFF7A1FEFFF7A0FAC8201B
:10158000FFF79CFEFFF7AAFEFFF7D4FEFFF71AFF56
:1015900008BD00BFE02B00086C2B000808B5022234
:1015A00009210020FFF74CFB02220A210020FFF74F
:1015B00047FB072209210020FFF77AFB07220A21B7
:1015C0000020FFF775FB022211460020FFF738FBD1
:1015D000022203210020FFF733FB07220221002013
:1015E000FFF766FB072203210020FFF761FBFFF7EF
:1015F00085FDFFF7E5FDFFF7ABFD08BD08B503204E
:10160000FFF71CFD002202212520FFF7D7FC002256
:1016100001212620FFF7D2FC002203210620FFF73C
:10162000CDFC002204210720FFF7C8FC2520FFF78E
:101630009DFC2620FFF79AFC2520FFF7B1FC262011
:10164000FFF7AEFC002211461046FFF7F9FA01221F
:1016500000210846FFF7CEFB002201211046FFF7CC
:10166000EFFA012211460020FFF7C4FB00210846D3
:10167000FFF7D0FA02210020FFF79CFA0021012099
:10168000FFF7C8FA02210120FFF794FA0648FFF796
:1016900069FA0648FFF76CFA0548FFF767FD054849
:1016A000FFF7C8FD08BD00BFC51C000801210008E8
:1016B00069180008DD1C000808B5FFF7D1FC0021FF
:1016C0000846FFF7F3FC01210020FFF7EFFC04219F
:1016D0000320FFF7EBFC11210220FFF7E7FC0E21AE
:1016E0000320FFF7E3FCFFF7BBFDFFF727FAFFF747
:1016F00019F8FFF753FFFFF781FFFFF72BFF08BD36
:1017000008B5012204210020FFF79AFA00231A46A7
:1017100004211846FFF718FB012204210020FFF7DF
:10172000A1FB08BD08B5012204210020FFF788FABB
:1017300000231A4604211846FFF706FB0022042165
:101740001046FFF78FFB08BD08B5012205210020D8
:10175000FFF776FA00231A4605211846FFF7F4FA38
:10176000012205210020FFF77DFB08BD08B50122FD
:1017700005210020FFF764FA00231A4605211846C8
:10178000FFF7E2FA002205211046FFF76BFB08BDC8
:1017900008B501220A211046FFF752FA00231A4623
:1017A0000A210120FFF7D0FA08BD10B5044610B198
:1017B000012C0FD010BD01220A211046FFF752FB69
:1017C0004FF4FA70FFF77AFD00220A210120FFF79B
:1017D00049FBEDE701220A211046FFF743FB4FF4D6
:1017E000BA60FFF76BFD00220A210120FFF73AFBE8
:1017F000E0E708B5012200211046FFF721FA022395
:10180000002211460120FFF79FFA08BD10B50446DB
:1018100010B1012C0FD010BD012200211046FFF79E
:1018200021FB4FF4FA70FFF749FD00221146012019
:10183000FFF718FBEDE7012200211046FFF712FB2E
:101840004FF4FA70FFF73AFD002211460120FFF72E
:1018500009FBE0E708B5FFF72FFFFFF7CFFEFFF723
:1018600097FFFFF7C6FFFEE738B5FFF79DFCC14BBA
:101870001870C14B1B68032B03DDC04B1B68002B8A
:101880005FDBBC4B1B78BE4A1278934207D0BD4940
:1018900009788B4203D0BC4909788B420FD193421F
:1018A0005FD0B44B1A78B74B1B789A4200F0E080B7
:1018B000B04B1A78B44B1B789A4200F07581AD4B4F
:1018C0001B78AF4A127893423AD0AE4A12789342CC
:1018D00036D0AD4A1278934232D0FFF7F0F8C820E4
:1018E000FFF7ECFC00210846FFF7DAF8A748FFF7FE
:1018F000CBF84FF4FA60FFF7E1FCFFF7E0F8C820FF
:10190000FFF7DCFC00210846FFF7CAF8A048FFF704
:10191000BBF808210020FFF7C3F8974B1868FFF7C2
:10192000D7F800210120FFF7BBF89A48FFF7ACF881
:1019300008210120FFF7B4F8904B1868FFF7C8F8AA
:1019400038BDFFF7BCF8C820FFF7B8FC00210846F7
:10195000FFF7A6F89048FFF797F80620FFF712FB6D
:101960008FE78E4B1B783BB18C4B1B78012B43D000
:101970008A4B01221A7094E73120FFF705FCFFF72C
:10198000BFFEFFF7F3FE7C4D2B6801332B607B4CD1
:101990002368013B23600620FFF7E8FA0021084690
:1019A000FFF738F902210020FFF704F94FF4FA603D
:1019B000FFF784FCFFF783F8C820FFF77FFC0021C6
:1019C0000846FFF76DF87248FFF75EF8082100201F
:1019D000FFF766F82868FFF77BF800210120FFF782
:1019E0005FF86C48FFF750F808210120FFF758F81E
:1019F0002068FFF76DF8B7E7FFF761F8C820FFF739
:101A00005DFC00210846FFF74BF86548FFF73CF8FE
:101A10000620FFF7B7FA012200211046FFF722FA4D
:101A20004FF4FA60FFF74AFCFFF749F8C820FFF7C8
:101A300045FC00210846FFF733F85548FFF724F826
:101A400008210020FFF72CF84B4B1868FFF740F8EF
:101A500000210120FFF724F84E48FFF715F8082170
:101A60000120FFF71DF8454B1868FFF731F87FE7B5
:101A70004C4B1B783BB14B4B1B78012B43D0494B54
:101A800001221A7014E73120FFF77EFBFFF738FEC2
:101A9000FFF76CFE384D2B6801332B60374C236801
:101AA000013B23600620FFF761FA00210846FFF79B
:101AB000B1F802210020FFF77DF84FF4FA60FFF73C
:101AC000FDFBFEF7FCFFC820FFF7F8FB00210846EE
:101AD000FEF7E6FF2E48FEF7D7FF08210020FEF7AD
:101AE000DFFF2868FEF7F4FF00210120FEF7D8FF92
:101AF0002848FEF7C9FF08210120FEF7D1FF206822
:101B0000FEF7E6FFB7E7FEF7DAFFC820FFF7D6FBE0
:101B100000210846FEF7C4FF2148FEF7B5FF062066
:101B2000FFF730FA4FF4FA60FFF7C8FBFEF7C7FF84
:101B3000C820FFF7C3FB00210846FEF7B1FF144899
:101B4000FEF7A2FF08210020FEF7AAFF0A4B186843
:101B5000FEF7BEFF00210120FEF7A2FF0D48FEF7B1
:101B600093FF08210120FEF79BFF044B1868FEF746
:101B7000AFFF84E73501002038010020100000206D
:101B80001C0100201D0100201E010020182C00084F
:101B9000E82B0008F02B0008F82B00081F0100209C
:101BA000082C000820010020404B1B783BB13F4B24
:101BB0001B78012B43D03D4B01221A707FE6312068
:101BC000FFF7E2FAFFF79CFDFFF7D0FD384D2B68D9
:101BD00001332B60374C2368013B23600620FFF75D
:101BE000C5F900210846FFF715F802210020FEF78D
:101BF000E1FF4FF4FA60FFF761FBFEF760FFC820DA
:101C0000FFF75CFB00210846FEF74AFF2A48FEF773
:101C10003BFF08210020FEF743FF2868FEF758FF2E
:101C200000210120FEF73CFF2448FEF72DFF08218C
:101C30000120FEF735FF2068FEF74AFFB7E7FEF701
:101C40003EFFC820FFF73AFB00210846FEF728FFB9
:101C50001B48FEF719FF0620FFF794F94FF4FA60CE
:101C6000FFF72CFBFEF72BFFC820FFF727FB002117
:101C70000846FEF715FF1048FEF706FF0821002072
:101C8000FEF70EFF0A4B1868FEF722FF0021012025
:101C9000FEF706FF0948FEF7F7FE08210120FEF7D0
:101CA000FFFE044B1868FEF713FF84E721010020B4
:101CB0003801002010000020E82B0008F02B00085D
:101CC000082C000808B50A210120FFF72FF9FFF7BB
:101CD0006CFD0A210120FFF7F7F808BD38B5FFF7C2
:101CE0009DFAB94B1870B94B1B78984207D0B84A87
:101CF0001278904203D0B74A127890420FD198429E
:101D00004FD0B14B1A78B24B1B789A4200F0CC807E
:101D1000AD4B1A78AF4B1B789A4200F04881AA4B22
:101D20001B78AA4A127893423AD0A94A1278934271
:101D300036D0A84A1278934232D0FEF7C0FEC820AF
:101D4000FFF7BCFA00210846FEF7AAFEA248FEF7FC
:101D50009BFE4FF4FA60FFF7B1FAFEF7B0FEC82021
:101D6000FFF7ACFA00210846FEF79AFE9B48FEF703
:101D70008BFE08210020FEF793FE994B1868FEF7B2
:101D8000A7FE00210120FEF78BFE9648FEF77CFEA1
:101D900008210120FEF784FE934B1868FEF798FE99
:101DA00038BD924B1B78012B07D0904B1B78002B32
:101DB00043D08E4B00221A70A3E73120FFF7E4F9DD
:101DC000FFF7B0FCFFF7C0FC854D2B68013B2B6093
:101DD000854C2368013323600720FFF7C7F80021F3
:101DE0000120FEF717FF02210120FEF7E3FE4FF46A
:101DF000FA60FFF763FAFEF762FEC820FFF75EFAAB
:101E000000210846FEF74CFE7448FEF73DFE08210F
:101E10000020FEF745FE2868FEF75AFE002101204B
:101E2000FEF73EFE6F48FEF72FFE08210120FEF769
:101E300037FE2068FEF74CFEB7E7FEF740FEC820ED
:101E4000FFF73CFA00210846FEF72AFE6848FEF735
:101E50001BFE0720FFF796F84FF4FA60FFF72EFA03
:101E6000FEF72DFEC820FFF729FA00210846FEF7ED
:101E700017FE5A48FEF708FE08210020FEF710FE64
:101E8000574B1868FEF724FE00210120FEF708FEDC
:101E90005448FEF7F9FD08210120FEF701FE524BE0
:101EA0001868FEF715FE84E7524B1B78012B07D00C
:101EB000504B1B78002B43D04E4B00221A7027E763
:101EC0003120FFF761F9FFF72DFCFFF73DFC444D92
:101ED0002B68013B2B60444C2368013323600720AF
:101EE000FFF744F800210120FEF794FE02210120B3
:101EF000FEF760FE4FF4FA60FFF7E0F9FEF7DFFD52
:101F0000C820FFF7DBF900210846FEF7C9FD33487A
:101F1000FEF7BAFD08210020FEF7C2FD2868FEF793
:101F2000D7FD00210120FEF7BBFD2E48FEF7ACFDDA
:101F300008210120FEF7B4FD2068FEF7C9FDB7E7D0
:101F4000FEF7BDFDC820FFF7B9F900210846FEF7EE
:101F5000A7FD2748FEF798FD0720FFF713F84FF479
:101F6000FA60FFF7ABF9FEF7AAFDC820FFF7A6F964
:101F700000210846FEF794FD1848FEF785FD08216C
:101F80000020FEF78DFD164B1868FEF7A1FD00211D
:101F90000120FEF785FD1348FEF776FD082101209C
:101FA000FEF77EFD104B1868FEF792FD84E7124B9A
:101FB0001B78012B22D0104B1B78002B5ED00E4BD0
:101FC00000221A70ABE600BF3D0100201C0100207A
:101FD0001D0100201E010020182C0008E82B00081D
:101FE00038010020F02B0008100000201F01002005
:101FF000282C000820010020210100203120FFF7BB
:10200000C3F8FFF78FFBFFF79FFB384D2B68013BB1
:102010002B60374C2368013323600720FEF7A6FFAF
:1020200000210120FEF7F6FD02210120FEF7C2FD8E
:1020300040F2DC50FFF742F9FEF741FDC820FFF700
:102040003DF900210846FEF72BFD2A48FEF71CFD4E
:1020500008210020FEF724FD2868FEF739FD002145
:102060000120FEF71DFD2448FEF70EFD082101208A
:10207000FEF716FD2068FEF72BFD9CE7FEF71FFD1F
:10208000C820FFF71BF900210846FEF709FD1B4891
:10209000FEF7FAFC0720FEF775FF4FF4FA60FFF732
:1020A0000DF9FEF70CFDC820FFF708F900210846DE
:1020B000FEF7F6FC0F48FEF7E7FC08210020FEF7CC
:1020C000EFFC0A4B1868FEF703FD00210120FEF724
:1020D000E7FC0948FEF7D8FC08210120FEF7E0FCE8
:1020E000034B1868FEF7F4FC69E700BF38010020D5
:1020F00010000020E82B0008F02B0008282C000816
:1021000008B500210120FEF711FFFFF77FFB00213A
:102110000120FEF7D9FE08BD014B1868704700BFCB
:102120001400002030B5141E05469BB0184605DA91
:102130008B232B604FF0FF301BB030BD4FF4027388
:10214000ADF80C3014BF04F1FF332346029305931E
:102150004FF6FF7300910491ADF80E3002461E9BBE
:102160006946284600F072F8431CBCBF8B232B60E5
:10217000002CE1D0009B00221A70DDE707B5009328
:1021800013460A46014603480068FFF7CBFF03B039
:102190005DF804FB140000202DE9F0478E689E4294
:1021A00082460C469046994637D88A8912F4906F39
:1021B00031D0256809696F1A6569022305EB450569
:1021C00095FBF3F509F101033B449D4238BF1D46E1
:1021D000530530D5294600F07DFB064650B90C2347
:1021E000CAF80030A38943F04003A3814FF0FF30C9
:1021F000BDE8F0873A46216900F0FAFAA38923F492
:10220000906343F08003A381266165613E44ED1B2A
:102210002660A5604E464E4500D94E4632464146A0
:10222000206800F0F0FAA3689B1BA36023681E449B
:1022300026600020DCE72A4600F0A6FB06460028C0
:10224000E2D12169504600F0F7FAC8E72DE9F04FD6
:102250009DB0804603938B891D060C4616460FD50C
:102260000B696BB9402100F035FB2060206128B973
:102270000C23C8F800304FF0FF30C7E04023636103
:102280000023099320238DF8293030238DF82A303C
:102290004FF0010B37463D4615F8013B0BB1252B9E
:1022A0003ED1B7EB060A0BD0534632462146404694
:1022B000FFF772FF013000F0A480099B534409939B
:1022C0003B78002B00F09D8000234FF0FF32CDE9DA
:1022D0000523049307938DF853301A932F46052254
:1022E00017F8011B4F4800F033FA049BD0B9D90608
:1022F00044BF20228DF853201A0744BF2B228DF8AB
:1023000053202A782A2A15D0079A2F4600200A251A
:10231000394611F8013B303B092B4DD9B8B10FE0DC
:102320002F46B8E73F4A801A0BFA00F01843049092
:102330003D46D3E7039A111D12680391002A01DB81
:10234000079204E0524243F00203079204933B7861
:102350002E2B0CD17B782A2B33D1039B1A1D1B68A3
:102360000392002BB8BF4FF0FF33023705932E4D79
:1023700039780322284600F0EBF938B14023401B9E
:1023800003FA00F0049B034301370493397827488C
:102390008DF8281006227E1C00F0DAF9002838D0CB
:1023A000234B13BB039B073323F00703083303932B
:1023B000099B4B4409936DE705FB023201200F4650
:1023C000A6E700230137059319460A25384610F879
:1023D000012B303A092A03D9002BC8D00591C6E752
:1023E00005FB012101230746F0E703AB00932246DA
:1023F000104B04A94046AFF30080B0F1FF3F814687
:10240000D6D1A3895B063FF536AF09981DB0BDE86C
:10241000F08F03AB00932246064B04A9404600F020
:1024200081F8EAE7382C00083E2C0008422C00080E
:1024300000000000992100082DE9F04791461F4651
:102440008A680B69DDF820809342B8BF1346C9F84B
:10245000003091F8432006460C4612B10133C9F80A
:1024600000302368990642BFD9F800300233C9F81A
:102470000030256815F0060507D104F1190AE36854
:10248000D9F800209B1AAB4228DC94F8433022682C
:10249000003318BF012392062DD404F143023946BC
:1024A0003046C047013020D02368E568D9F80020C5
:1024B00003F00603042B08BFAD1AA36822690CBF02
:1024C00025EAE57500259342C4BF9B1AED184FF02D
:1024D00000091A344D451AD1002008E00123524664
:1024E00039463046C047013003D14FF0FF30BDE8D8
:1024F000F0870135C3E7E1185A1C302081F843000A
:10250000224494F8451082F843100233C5E70123B2
:10251000224639463046C0470130E6D009F101096C
:10252000D8E700002DE9F04301F1430C0C46097E89
:1025300085B06E291746064698460C9A00F0B3807F
:1025400022D8632936D00AD8002900F0B98058294A
:1025500000F0838004F1420584F8421032E06429DF
:1025600001D06929F6D120681368050603F104013A
:102570002AD51B681160002B03DA2D225B4284F8F8
:1025800043206F480A2239E0732900F09D8008D863
:102590006F2920D07029DDD1236843F02003236008
:1025A00003E0752917D07829D4D1782384F84530F1
:1025B000644855E01368191D1B68116004F1420559
:1025C00084F8423001238CE01B68116010F0400F4A
:1025D00018BF1BB2CFE713682568181D10602806C6
:1025E00001D51B6802E06806FBD51B8854486F299B
:1025F00014BF0A220822002184F843106568A560F0
:10260000002DC0F29580216821F004012160002B8B
:102610003DD1002D40F08E806546082A0BD12368FD
:10262000DB0708D5236962689A42DEBF302305F8CC
:10263000013C05F1FF35ACEB05032361CDF80080CB
:102640003B4603AA21463046FFF7F6FE01304DD146
:102650004FF0FF3005B0BDE8F083394884F84510ED
:10266000136821681D1D1B6815600A060BD5CA0773
:1026700044BF41F0200121601BB9226822F02002F2
:1026800022601022B7E74D0648BF9BB2EFE76546D0
:10269000B3FBF2F102FB1133C35C05F8013D0B46BD
:1026A0000029F5D1B9E7136825686169181D106024
:1026B00028061B6801D5196002E06A06FBD519805F
:1026C000002323616546B9E71368191D11601D6871
:1026D00062680021284600F03BF808B1401B6060AA
:1026E00063682361002384F84330A7E723692A46FF
:1026F00039463046C0470130AAD023689B0713D41F
:10270000E068039B9842B8BF1846A3E701234A46F6
:1027100039463046C04701309AD00135E368039A04
:102720009B1AAB42F2DCEBE7002504F11909F5E74F
:10273000002BACD1037884F8423004F142056CE7F9
:10274000492C00085A2C000800000000000000007E
:1027500001F0FF01102A2BDB10F0070F08D010F852
:10276000013B013A8B422DD010F0070F42B3F6D156
:10277000F0B441EA012141EA014122F007047FF06F
:1027800000070023F0E80256083C85EA010586EAC6
:10279000010685FA47F5A3FA87F586FA47F6A5FA02
:1027A00087F68EB9EED1F0BC01F0FF0102F007020E
:1027B00032B110F8013B013A83EA010313B1F8D1B9
:1027C0000020704701387047002D06BF354603389A
:1027D000073815F0010F07D1013015F4807F02BFD3
:1027E000013015F4C03F0130F0BC0138704700BF24
:1027F00010B5431E0A44914200D110BD11F8014B9F
:1028000003F8014FF7E7884210B501EB020307D840
:10281000421E99420AD011F8014B02F8014FF8E725
:102820008342F5D98118D21AD34200D110BD13F8D2
:10283000014D01F8014DF7E738B50546002945D0AF
:1028400051F8043C0C1F002BB8BFE41800F0D2F87C
:102850001F4A1368104633B9636014602846BDE808
:10286000384000F0C8B8A3420CD9216862189342DE
:1028700004BF1A685B68636004BF5218226004607A
:10288000ECE713465A680AB1A242FAD919685818F7
:10289000A0420BD120680144581882421960DDD152
:1028A000106852685A6001441960D7E702D90C23B6
:1028B0002B60D3E7206821188A4204BF1168526850
:1028C000626004BF091821605C60C7E738BD00BFC3
:1028D0002401002070B5CD1C25F0030508350C2D12
:1028E00038BF0C25002D064601DBA94203D90C2375
:1028F0003360002070BD00F07DF8214A1468214645
:1029000091B9204C23681BB9304600F063F8206071
:102910002946304600F05EF8431C24D10C23336076
:10292000304600F068F8E4E70B685B1B18D40B2B0B
:102930000FD90B60CD50CC18304600F05CF804F194
:102940000B00231D20F00700C31AD3D05A42E250D7
:10295000D0E78C424B6816BF636013600C46EBE710
:102960000C464968CCE7C41C24F00304A04205D0FF
:10297000211A304600F02EF80130CFD02560DBE779
:102980002401002028010020F8B5074614460E4611
:1029900021B91146BDE8F840FFF79CBF22B9FFF707
:1029A0004BFF25462846F8BD00F026F8A0420FD27E
:1029B00021463846FFF78EFF05460028F2D0314603
:1029C0002246FFF715FF31463846FFF735FFE9E7A6
:1029D0003546E7E738B5064C002305460846236030
:1029E000FDF720FD431C02D1236803B12B6038BDE5
:1029F0002C0100207047704751F8043C181F002B31
:102A0000BCBF0B58C0187047537461636B2066726B
:102A1000616D653A0A000000205230203D202025DB
:102A20003038580A00000000205231203D20202577
:102A30003038580A00000000205232203D20202566
:102A40003038580A00000000205233203D20202555
:102A50003038580A0000000020523132203D202535
:102A60003038580A00000000204C52203D2020251C
:102A70003038580A00000000205043203D20202517
:102A80003038580A0000000020505352203D2025C5
:102A90003038580A000000004653522F4641523A3F
:102AA0000A0000002043465352203D2020253038A4
:102AB000580A00002048465352203D202025303837
:102AC000580A00002044465352203D20202530382B
:102AD000580A00002041465352203D20202530381E
:102AE000580A0000204D4D464152203D20253038E7
:102AF000580A00002042464152203D20202530380F
:102B0000580A00004D6973630A000000204C522FE0
:102B10004558435F52455455524E3D202530385854
:102B20000A0000005B486172644661756C745D0A5E
:102B3000000000005B4275734661756C745D0A00AD
:102B40005B55736167654661756C745D0A000000D2
:102B5000000000000000000001020304060708094D
:102B60003132333435363738392A3023544F2053F5
:102B70004D415254205041524B494E4720000000D5
:102B8000464952535420435553544F4D455220000B
:102B9000454E544552204944203A20005345434F66
:102BA0004E4420435553544F4D45522000000000E1
:102BB000494E56414C4944210000000054484952B6
:102BC0004420435553544F4D455220004C4F4144EF
:102BD000494E47005355434345535346554C000017
:102BE00057454C434F4D450043415253203A200036
:102BF00046524545203A2000474152414745204929
:102C0000532046554C4C20004341525320494E53CB
:102C1000494445202100000057524F4E4720504163
:102C20005353574F52440000434152204E4F5420BB
:102C30004845524520210000232D302B2000686C90
:102C40004C006566674546470030313233343536CF
:102C50003738394142434445460030313233343508
:0B2C6000363738396162636465660036
:102C6C007856341284000020000000000024F40088
:102C7C00030000001800002000000000000000000D
:102C8C000000000000000000000000000000000038
:102C9C000000000000000000000000000000000028
:102CAC000000000000000000000000000000000018
:102CBC000000000000000000000000000000000008
:102CCC0000000000000000000000000000000000F8
:0C2CDC0000000000000000003254769858
:040000050800019559
:00000001FF
